{
  "contractName": "PlayerToken",
  "abi": [
    {
      "inputs": [],
      "stateMutability": "nonpayable",
      "type": "constructor"
    },
    {
      "anonymous": false,
      "inputs": [
        {
          "indexed": true,
          "internalType": "address",
          "name": "owner",
          "type": "address"
        },
        {
          "indexed": true,
          "internalType": "address",
          "name": "approved",
          "type": "address"
        },
        {
          "indexed": true,
          "internalType": "uint256",
          "name": "tokenId",
          "type": "uint256"
        }
      ],
      "name": "Approval",
      "type": "event"
    },
    {
      "anonymous": false,
      "inputs": [
        {
          "indexed": true,
          "internalType": "address",
          "name": "owner",
          "type": "address"
        },
        {
          "indexed": true,
          "internalType": "address",
          "name": "operator",
          "type": "address"
        },
        {
          "indexed": false,
          "internalType": "bool",
          "name": "approved",
          "type": "bool"
        }
      ],
      "name": "ApprovalForAll",
      "type": "event"
    },
    {
      "anonymous": false,
      "inputs": [
        {
          "indexed": true,
          "internalType": "address",
          "name": "from",
          "type": "address"
        },
        {
          "indexed": true,
          "internalType": "address",
          "name": "to",
          "type": "address"
        },
        {
          "indexed": true,
          "internalType": "uint256",
          "name": "tokenId",
          "type": "uint256"
        }
      ],
      "name": "Transfer",
      "type": "event"
    },
    {
      "inputs": [
        {
          "internalType": "address",
          "name": "to",
          "type": "address"
        },
        {
          "internalType": "uint256",
          "name": "tokenId",
          "type": "uint256"
        }
      ],
      "name": "approve",
      "outputs": [],
      "stateMutability": "nonpayable",
      "type": "function"
    },
    {
      "inputs": [
        {
          "internalType": "address",
          "name": "owner",
          "type": "address"
        }
      ],
      "name": "balanceOf",
      "outputs": [
        {
          "internalType": "uint256",
          "name": "",
          "type": "uint256"
        }
      ],
      "stateMutability": "view",
      "type": "function",
      "constant": true
    },
    {
      "inputs": [],
      "name": "baseURI",
      "outputs": [
        {
          "internalType": "string",
          "name": "",
          "type": "string"
        }
      ],
      "stateMutability": "view",
      "type": "function",
      "constant": true
    },
    {
      "inputs": [
        {
          "internalType": "uint256",
          "name": "tokenId",
          "type": "uint256"
        }
      ],
      "name": "getApproved",
      "outputs": [
        {
          "internalType": "address",
          "name": "",
          "type": "address"
        }
      ],
      "stateMutability": "view",
      "type": "function",
      "constant": true
    },
    {
      "inputs": [
        {
          "internalType": "address",
          "name": "owner",
          "type": "address"
        },
        {
          "internalType": "address",
          "name": "operator",
          "type": "address"
        }
      ],
      "name": "isApprovedForAll",
      "outputs": [
        {
          "internalType": "bool",
          "name": "",
          "type": "bool"
        }
      ],
      "stateMutability": "view",
      "type": "function",
      "constant": true
    },
    {
      "inputs": [],
      "name": "name",
      "outputs": [
        {
          "internalType": "string",
          "name": "",
          "type": "string"
        }
      ],
      "stateMutability": "view",
      "type": "function",
      "constant": true
    },
    {
      "inputs": [
        {
          "internalType": "uint256",
          "name": "tokenId",
          "type": "uint256"
        }
      ],
      "name": "ownerOf",
      "outputs": [
        {
          "internalType": "address",
          "name": "",
          "type": "address"
        }
      ],
      "stateMutability": "view",
      "type": "function",
      "constant": true
    },
    {
      "inputs": [
        {
          "internalType": "uint256",
          "name": "",
          "type": "uint256"
        }
      ],
      "name": "players",
      "outputs": [
        {
          "internalType": "address",
          "name": "owner",
          "type": "address"
        },
        {
          "internalType": "uint256",
          "name": "id",
          "type": "uint256"
        },
        {
          "internalType": "uint256",
          "name": "rank",
          "type": "uint256"
        }
      ],
      "stateMutability": "view",
      "type": "function",
      "constant": true
    },
    {
      "inputs": [
        {
          "internalType": "address",
          "name": "from",
          "type": "address"
        },
        {
          "internalType": "address",
          "name": "to",
          "type": "address"
        },
        {
          "internalType": "uint256",
          "name": "tokenId",
          "type": "uint256"
        }
      ],
      "name": "safeTransferFrom",
      "outputs": [],
      "stateMutability": "nonpayable",
      "type": "function"
    },
    {
      "inputs": [
        {
          "internalType": "address",
          "name": "from",
          "type": "address"
        },
        {
          "internalType": "address",
          "name": "to",
          "type": "address"
        },
        {
          "internalType": "uint256",
          "name": "tokenId",
          "type": "uint256"
        },
        {
          "internalType": "bytes",
          "name": "_data",
          "type": "bytes"
        }
      ],
      "name": "safeTransferFrom",
      "outputs": [],
      "stateMutability": "nonpayable",
      "type": "function"
    },
    {
      "inputs": [
        {
          "internalType": "address",
          "name": "operator",
          "type": "address"
        },
        {
          "internalType": "bool",
          "name": "approved",
          "type": "bool"
        }
      ],
      "name": "setApprovalForAll",
      "outputs": [],
      "stateMutability": "nonpayable",
      "type": "function"
    },
    {
      "inputs": [
        {
          "internalType": "bytes4",
          "name": "interfaceId",
          "type": "bytes4"
        }
      ],
      "name": "supportsInterface",
      "outputs": [
        {
          "internalType": "bool",
          "name": "",
          "type": "bool"
        }
      ],
      "stateMutability": "view",
      "type": "function",
      "constant": true
    },
    {
      "inputs": [],
      "name": "symbol",
      "outputs": [
        {
          "internalType": "string",
          "name": "",
          "type": "string"
        }
      ],
      "stateMutability": "view",
      "type": "function",
      "constant": true
    },
    {
      "inputs": [
        {
          "internalType": "uint256",
          "name": "index",
          "type": "uint256"
        }
      ],
      "name": "tokenByIndex",
      "outputs": [
        {
          "internalType": "uint256",
          "name": "",
          "type": "uint256"
        }
      ],
      "stateMutability": "view",
      "type": "function",
      "constant": true
    },
    {
      "inputs": [
        {
          "internalType": "address",
          "name": "owner",
          "type": "address"
        },
        {
          "internalType": "uint256",
          "name": "index",
          "type": "uint256"
        }
      ],
      "name": "tokenOfOwnerByIndex",
      "outputs": [
        {
          "internalType": "uint256",
          "name": "",
          "type": "uint256"
        }
      ],
      "stateMutability": "view",
      "type": "function",
      "constant": true
    },
    {
      "inputs": [
        {
          "internalType": "uint256",
          "name": "tokenId",
          "type": "uint256"
        }
      ],
      "name": "tokenURI",
      "outputs": [
        {
          "internalType": "string",
          "name": "",
          "type": "string"
        }
      ],
      "stateMutability": "view",
      "type": "function",
      "constant": true
    },
    {
      "inputs": [],
      "name": "totalSupply",
      "outputs": [
        {
          "internalType": "uint256",
          "name": "",
          "type": "uint256"
        }
      ],
      "stateMutability": "view",
      "type": "function",
      "constant": true
    },
    {
      "inputs": [
        {
          "internalType": "address",
          "name": "from",
          "type": "address"
        },
        {
          "internalType": "address",
          "name": "to",
          "type": "address"
        },
        {
          "internalType": "uint256",
          "name": "tokenId",
          "type": "uint256"
        }
      ],
      "name": "transferFrom",
      "outputs": [],
      "stateMutability": "nonpayable",
      "type": "function"
    },
    {
      "inputs": [
        {
          "internalType": "uint256",
          "name": "_id",
          "type": "uint256"
        },
        {
          "internalType": "uint256",
          "name": "_rank",
          "type": "uint256"
        }
      ],
      "name": "mint",
      "outputs": [],
      "stateMutability": "nonpayable",
      "type": "function"
    },
    {
      "inputs": [],
      "name": "getPlayers",
      "outputs": [
        {
          "components": [
            {
              "internalType": "address",
              "name": "owner",
              "type": "address"
            },
            {
              "internalType": "uint256",
              "name": "id",
              "type": "uint256"
            },
            {
              "internalType": "uint256",
              "name": "rank",
              "type": "uint256"
            }
          ],
          "internalType": "struct PlayerToken.Player[]",
          "name": "",
          "type": "tuple[]"
        }
      ],
      "stateMutability": "view",
      "type": "function",
      "constant": true
    }
  ],
  "bytecode": "0x60806040523480156200001157600080fd5b506040518060400160405280600b81526020017f506c61796572546f6b656e0000000000000000000000000000000000000000008152506040518060400160405280600281526020017f5054000000000000000000000000000000000000000000000000000000000000815250620000966301ffc9a760e01b6200011860201b60201c565b8160069080519060200190620000ae92919062000221565b508060079080519060200190620000c792919062000221565b50620000e06380ac58cd60e01b6200011860201b60201c565b620000f8635b5e139f60e01b6200011860201b60201c565b6200011063780e9d6360e01b6200011860201b60201c565b5050620002d7565b63ffffffff60e01b817bffffffffffffffffffffffffffffffffffffffffffffffffffffffff19161415620001b5576040517f08c379a000000000000000000000000000000000000000000000000000000000815260040180806020018281038252601c8152602001807f4552433136353a20696e76616c696420696e746572666163652069640000000081525060200191505060405180910390fd5b6001600080837bffffffffffffffffffffffffffffffffffffffffffffffffffffffff19167bffffffffffffffffffffffffffffffffffffffffffffffffffffffff1916815260200190815260200160002060006101000a81548160ff02191690831515021790555050565b828054600181600116156101000203166002900490600052602060002090601f016020900481019282620002595760008555620002a5565b82601f106200027457805160ff1916838001178555620002a5565b82800160010185558215620002a5579182015b82811115620002a457825182559160200191906001019062000287565b5b509050620002b49190620002b8565b5090565b5b80821115620002d3576000816000905550600101620002b9565b5090565b612df380620002e76000396000f3fe608060405234801561001057600080fd5b506004361061012c5760003560e01c80636352211e116100ad578063a22cb46511610071578063a22cb46514610357578063b88d4fde14610373578063c87b56dd1461038f578063e985e9c5146103bf578063f71d96cb146103ef5761012c565b80636352211e1461029d5780636c0360eb146102cd57806370a08231146102eb5780638b5b9ccc1461031b57806395d89b41146103395761012c565b80631b2ef1ca116100f45780631b2ef1ca146101e957806323b872dd146102055780632f745c591461022157806342842e0e146102515780634f6ccce71461026d5761012c565b806301ffc9a71461013157806306fdde0314610161578063081812fc1461017f578063095ea7b3146101af57806318160ddd146101cb575b600080fd5b61014b600480360381019061014691906126ff565b610421565b604051610158919061293d565b60405180910390f35b610169610488565b6040516101769190612958565b60405180910390f35b61019960048036038101906101949190612728565b61052a565b6040516101a691906128c9565b60405180910390f35b6101c960048036038101906101c491906126c3565b6105c5565b005b6101d3610709565b6040516101e0919061297a565b60405180910390f35b61020360048036038101906101fe9190612751565b61071a565b005b61021f600480360381019061021a91906125bd565b610843565b005b61023b600480360381019061023691906126c3565b6108b9565b604051610248919061297a565b60405180910390f35b61026b600480360381019061026691906125bd565b610914565b005b61028760048036038101906102829190612728565b610934565b604051610294919061297a565b60405180910390f35b6102b760048036038101906102b29190612728565b610957565b6040516102c491906128c9565b60405180910390f35b6102d561098e565b6040516102e29190612958565b60405180910390f35b61030560048036038101906103009190612558565b610a30565b604051610312919061297a565b60405180910390f35b610323610b05565b604051610330919061291b565b60405180910390f35b610341610bce565b60405161034e9190612958565b60405180910390f35b610371600480360381019061036c9190612687565b610c70565b005b61038d6004803603810190610388919061260c565b610e26565b005b6103a960048036038101906103a49190612728565b610e9e565b6040516103b69190612958565b60405180910390f35b6103d960048036038101906103d49190612581565b61116f565b6040516103e6919061293d565b60405180910390f35b61040960048036038101906104049190612728565b611203565b604051610418939291906128e4565b60405180910390f35b6000806000837bffffffffffffffffffffffffffffffffffffffffffffffffffffffff19167bffffffffffffffffffffffffffffffffffffffffffffffffffffffff1916815260200190815260200160002060009054906101000a900460ff169050919050565b606060068054600181600116156101000203166002900480601f0160208091040260200160405190810160405280929190818152602001828054600181600116156101000203166002900480156105205780601f106104f557610100808354040283529160200191610520565b820191906000526020600020905b81548152906001019060200180831161050357829003601f168201915b5050505050905090565b60006105358261125d565b61058a576040517f08c379a000000000000000000000000000000000000000000000000000000000815260040180806020018281038252602c815260200180612ce8602c913960400191505060405180910390fd5b6004600083815260200190815260200160002060009054906101000a900473ffffffffffffffffffffffffffffffffffffffff169050919050565b60006105d082610957565b90508073ffffffffffffffffffffffffffffffffffffffff168373ffffffffffffffffffffffffffffffffffffffff161415610657576040517f08c379a0000000000000000000000000000000000000000000000000000000008152600401808060200182810382526021815260200180612d6c6021913960400191505060405180910390fd5b8073ffffffffffffffffffffffffffffffffffffffff1661067661127a565b73ffffffffffffffffffffffffffffffffffffffff1614806106a557506106a48161069f61127a565b61116f565b5b6106fa576040517f08c379a0000000000000000000000000000000000000000000000000000000008152600401808060200182810382526038815260200180612c3b6038913960400191505060405180910390fd5b6107048383611282565b505050565b6000610715600261133b565b905090565b600b600083815260200190815260200160002060009054906101000a900460ff161561074557600080fd5b600060405180606001604052803373ffffffffffffffffffffffffffffffffffffffff168152602001848152602001838152509050600a81908060018154018082558091505060019003906000526020600020906003020160009091909190915060008201518160000160006101000a81548173ffffffffffffffffffffffffffffffffffffffff021916908373ffffffffffffffffffffffffffffffffffffffff1602179055506020820151816001015560408201518160020155505061081233600a80549050611350565b6001600b600085815260200190815260200160002060006101000a81548160ff021916908315150217905550505050565b61085461084e61127a565b82611544565b6108a9576040517f08c379a0000000000000000000000000000000000000000000000000000000008152600401808060200182810382526031815260200180612d8d6031913960400191505060405180910390fd5b6108b4838383611638565b505050565b600061090c82600160008673ffffffffffffffffffffffffffffffffffffffff1673ffffffffffffffffffffffffffffffffffffffff16815260200190815260200160002061187b90919063ffffffff16565b905092915050565b61092f83838360405180602001604052806000815250610e26565b505050565b60008061094b83600261189590919063ffffffff16565b50905080915050919050565b600061098782604051806060016040528060298152602001612c9d6029913960026118c19092919063ffffffff16565b9050919050565b606060098054600181600116156101000203166002900480601f016020809104026020016040519081016040528092919081815260200182805460018160011615610100020316600290048015610a265780601f106109fb57610100808354040283529160200191610a26565b820191906000526020600020905b815481529060010190602001808311610a0957829003601f168201915b5050505050905090565b60008073ffffffffffffffffffffffffffffffffffffffff168273ffffffffffffffffffffffffffffffffffffffff161415610ab7576040517f08c379a000000000000000000000000000000000000000000000000000000000815260040180806020018281038252602a815260200180612c73602a913960400191505060405180910390fd5b610afe600160008473ffffffffffffffffffffffffffffffffffffffff1673ffffffffffffffffffffffffffffffffffffffff1681526020019081526020016000206118e0565b9050919050565b6060600a805480602002602001604051908101604052809291908181526020016000905b82821015610bc557838290600052602060002090600302016040518060600160405290816000820160009054906101000a900473ffffffffffffffffffffffffffffffffffffffff1673ffffffffffffffffffffffffffffffffffffffff1673ffffffffffffffffffffffffffffffffffffffff1681526020016001820154815260200160028201548152505081526020019060010190610b29565b50505050905090565b606060078054600181600116156101000203166002900480601f016020809104026020016040519081016040528092919081815260200182805460018160011615610100020316600290048015610c665780601f10610c3b57610100808354040283529160200191610c66565b820191906000526020600020905b815481529060010190602001808311610c4957829003601f168201915b5050505050905090565b610c7861127a565b73ffffffffffffffffffffffffffffffffffffffff168273ffffffffffffffffffffffffffffffffffffffff161415610d19576040517f08c379a00000000000000000000000000000000000000000000000000000000081526004018080602001828103825260198152602001807f4552433732313a20617070726f766520746f2063616c6c65720000000000000081525060200191505060405180910390fd5b8060056000610d2661127a565b73ffffffffffffffffffffffffffffffffffffffff1673ffffffffffffffffffffffffffffffffffffffff16815260200190815260200160002060008473ffffffffffffffffffffffffffffffffffffffff1673ffffffffffffffffffffffffffffffffffffffff16815260200190815260200160002060006101000a81548160ff0219169083151502179055508173ffffffffffffffffffffffffffffffffffffffff16610dd361127a565b73ffffffffffffffffffffffffffffffffffffffff167f17307eab39ab6107e8899845ad3d59bd9653f200f220920489ca2b5937696c318360405180821515815260200191505060405180910390a35050565b610e37610e3161127a565b83611544565b610e8c576040517f08c379a0000000000000000000000000000000000000000000000000000000008152600401808060200182810382526031815260200180612d8d6031913960400191505060405180910390fd5b610e98848484846118f5565b50505050565b6060610ea98261125d565b610efe576040517f08c379a000000000000000000000000000000000000000000000000000000000815260040180806020018281038252602f815260200180612d3d602f913960400191505060405180910390fd5b6000600860008481526020019081526020016000208054600181600116156101000203166002900480601f016020809104026020016040519081016040528092919081815260200182805460018160011615610100020316600290048015610fa75780601f10610f7c57610100808354040283529160200191610fa7565b820191906000526020600020905b815481529060010190602001808311610f8a57829003601f168201915b505050505090506000610fb861098e565b9050600081511415610fce57819250505061116a565b60008251111561109f5780826040516020018083805190602001908083835b602083106110105780518252602082019150602081019050602083039250610fed565b6001836020036101000a03801982511681845116808217855250505050505090500182805190602001908083835b60208310611061578051825260208201915060208101905060208303925061103e565b6001836020036101000a038019825116818451168082178552505050505050905001925050506040516020818303038152906040529250505061116a565b806110a985611967565b6040516020018083805190602001908083835b602083106110df57805182526020820191506020810190506020830392506110bc565b6001836020036101000a03801982511681845116808217855250505050505090500182805190602001908083835b60208310611130578051825260208201915060208101905060208303925061110d565b6001836020036101000a03801982511681845116808217855250505050505090500192505050604051602081830303815290604052925050505b919050565b6000600560008473ffffffffffffffffffffffffffffffffffffffff1673ffffffffffffffffffffffffffffffffffffffff16815260200190815260200160002060008373ffffffffffffffffffffffffffffffffffffffff1673ffffffffffffffffffffffffffffffffffffffff16815260200190815260200160002060009054906101000a900460ff16905092915050565b600a818154811061121357600080fd5b90600052602060002090600302016000915090508060000160009054906101000a900473ffffffffffffffffffffffffffffffffffffffff16908060010154908060020154905083565b6000611273826002611aae90919063ffffffff16565b9050919050565b600033905090565b816004600083815260200190815260200160002060006101000a81548173ffffffffffffffffffffffffffffffffffffffff021916908373ffffffffffffffffffffffffffffffffffffffff160217905550808273ffffffffffffffffffffffffffffffffffffffff166112f583610957565b73ffffffffffffffffffffffffffffffffffffffff167f8c5be1e5ebec7d5bd14f71427d1e84f3dd0314c0f7b2291e5b200ac8c7c3b92560405160405180910390a45050565b600061134982600001611ac8565b9050919050565b600073ffffffffffffffffffffffffffffffffffffffff168273ffffffffffffffffffffffffffffffffffffffff1614156113f3576040517f08c379a00000000000000000000000000000000000000000000000000000000081526004018080602001828103825260208152602001807f4552433732313a206d696e7420746f20746865207a65726f206164647265737381525060200191505060405180910390fd5b6113fc8161125d565b1561146f576040517f08c379a000000000000000000000000000000000000000000000000000000000815260040180806020018281038252601c8152602001807f4552433732313a20746f6b656e20616c7265616479206d696e7465640000000081525060200191505060405180910390fd5b61147b60008383611ad9565b6114cc81600160008573ffffffffffffffffffffffffffffffffffffffff1673ffffffffffffffffffffffffffffffffffffffff168152602001908152602001600020611ade90919063ffffffff16565b506114e381836002611af89092919063ffffffff16565b50808273ffffffffffffffffffffffffffffffffffffffff16600073ffffffffffffffffffffffffffffffffffffffff167fddf252ad1be2c89b69c2b068fc378daa952ba7f163c4a11628f55a4df523b3ef60405160405180910390a45050565b600061154f8261125d565b6115a4576040517f08c379a000000000000000000000000000000000000000000000000000000000815260040180806020018281038252602c815260200180612c0f602c913960400191505060405180910390fd5b60006115af83610957565b90508073ffffffffffffffffffffffffffffffffffffffff168473ffffffffffffffffffffffffffffffffffffffff16148061161e57508373ffffffffffffffffffffffffffffffffffffffff166116068461052a565b73ffffffffffffffffffffffffffffffffffffffff16145b8061162f575061162e818561116f565b5b91505092915050565b8273ffffffffffffffffffffffffffffffffffffffff1661165882610957565b73ffffffffffffffffffffffffffffffffffffffff16146116c4576040517f08c379a0000000000000000000000000000000000000000000000000000000008152600401808060200182810382526029815260200180612d146029913960400191505060405180910390fd5b600073ffffffffffffffffffffffffffffffffffffffff168273ffffffffffffffffffffffffffffffffffffffff16141561174a576040517f08c379a0000000000000000000000000000000000000000000000000000000008152600401808060200182810382526024815260200180612bc56024913960400191505060405180910390fd5b611755838383611ad9565b611760600082611282565b6117b181600160008673ffffffffffffffffffffffffffffffffffffffff1673ffffffffffffffffffffffffffffffffffffffff168152602001908152602001600020611b2d90919063ffffffff16565b5061180381600160008573ffffffffffffffffffffffffffffffffffffffff1673ffffffffffffffffffffffffffffffffffffffff168152602001908152602001600020611ade90919063ffffffff16565b5061181a81836002611af89092919063ffffffff16565b50808273ffffffffffffffffffffffffffffffffffffffff168473ffffffffffffffffffffffffffffffffffffffff167fddf252ad1be2c89b69c2b068fc378daa952ba7f163c4a11628f55a4df523b3ef60405160405180910390a4505050565b600061188a8360000183611b47565b60001c905092915050565b6000806000806118a88660000186611bca565b915091508160001c8160001c9350935050509250929050565b60006118d4846000018460001b84611c63565b60001c90509392505050565b60006118ee82600001611d59565b9050919050565b611900848484611638565b61190c84848484611d6a565b611961576040517f08c379a0000000000000000000000000000000000000000000000000000000008152600401808060200182810382526032815260200180612b936032913960400191505060405180910390fd5b50505050565b606060008214156119af576040518060400160405280600181526020017f30000000000000000000000000000000000000000000000000000000000000008152509050611aa9565b600082905060005b600082146119d9578080600101915050600a82816119d157fe5b0491506119b7565b60008167ffffffffffffffff811180156119f257600080fd5b506040519080825280601f01601f191660200182016040528015611a255781602001600182028036833780820191505090505b50905060006001830390508593505b60008414611aa157600a8481611a4657fe5b0660300160f81b82828060019003935081518110611a6057fe5b60200101907effffffffffffffffffffffffffffffffffffffffffffffffffffffffffffff1916908160001a905350600a8481611a9957fe5b049350611a34565b819450505050505b919050565b6000611ac0836000018360001b611f83565b905092915050565b600081600001805490509050919050565b505050565b6000611af0836000018360001b611fa6565b905092915050565b6000611b24846000018460001b8473ffffffffffffffffffffffffffffffffffffffff1660001b612016565b90509392505050565b6000611b3f836000018360001b6120f2565b905092915050565b600081836000018054905011611ba8576040517f08c379a0000000000000000000000000000000000000000000000000000000008152600401808060200182810382526022815260200180612b716022913960400191505060405180910390fd5b826000018281548110611bb757fe5b9060005260206000200154905092915050565b60008082846000018054905011611c2c576040517f08c379a0000000000000000000000000000000000000000000000000000000008152600401808060200182810382526022815260200180612cc66022913960400191505060405180910390fd5b6000846000018481548110611c3d57fe5b906000526020600020906002020190508060000154816001015492509250509250929050565b60008084600101600085815260200190815260200160002054905060008114158390611d2a576040517f08c379a00000000000000000000000000000000000000000000000000000000081526004018080602001828103825283818151815260200191508051906020019080838360005b83811015611cef578082015181840152602081019050611cd4565b50505050905090810190601f168015611d1c5780820380516001836020036101000a031916815260200191505b509250505060405180910390fd5b50846000016001820381548110611d3d57fe5b9060005260206000209060020201600101549150509392505050565b600081600001805490509050919050565b6000611d8b8473ffffffffffffffffffffffffffffffffffffffff166121da565b611d985760019050611f7b565b6000611f0263150b7a0260e01b611dad61127a565b888787604051602401808573ffffffffffffffffffffffffffffffffffffffff1681526020018473ffffffffffffffffffffffffffffffffffffffff16815260200183815260200180602001828103825283818151815260200191508051906020019080838360005b83811015611e31578082015181840152602081019050611e16565b50505050905090810190601f168015611e5e5780820380516001836020036101000a031916815260200191505b5095505050505050604051602081830303815290604052907bffffffffffffffffffffffffffffffffffffffffffffffffffffffff19166020820180517bffffffffffffffffffffffffffffffffffffffffffffffffffffffff8381831617835250505050604051806060016040528060328152602001612b93603291398773ffffffffffffffffffffffffffffffffffffffff166121ed9092919063ffffffff16565b90506000818060200190516020811015611f1b57600080fd5b8101908080519060200190929190505050905063150b7a0260e01b7bffffffffffffffffffffffffffffffffffffffffffffffffffffffff1916817bffffffffffffffffffffffffffffffffffffffffffffffffffffffff191614925050505b949350505050565b600080836001016000848152602001908152602001600020541415905092915050565b6000611fb28383612205565b61200b578260000182908060018154018082558091505060019003906000526020600020016000909190919091505582600001805490508360010160008481526020019081526020016000208190555060019050612010565b600090505b92915050565b60008084600101600085815260200190815260200160002054905060008114156120bd578460000160405180604001604052808681526020018581525090806001815401808255809150506001900390600052602060002090600202016000909190919091506000820151816000015560208201518160010155505084600001805490508560010160008681526020019081526020016000208190555060019150506120eb565b828560000160018303815481106120d057fe5b90600052602060002090600202016001018190555060009150505b9392505050565b600080836001016000848152602001908152602001600020549050600081146121ce576000600182039050600060018660000180549050039050600086600001828154811061213d57fe5b906000526020600020015490508087600001848154811061215a57fe5b906000526020600020018190555060018301876001016000838152602001908152602001600020819055508660000180548061219257fe5b600190038181906000526020600020016000905590558660010160008781526020019081526020016000206000905560019450505050506121d4565b60009150505b92915050565b600080823b905060008111915050919050565b60606121fc8484600085612228565b90509392505050565b600080836001016000848152602001908152602001600020541415905092915050565b606082471015612283576040517f08c379a0000000000000000000000000000000000000000000000000000000008152600401808060200182810382526026815260200180612be96026913960400191505060405180910390fd5b61228c856121da565b6122fe576040517f08c379a000000000000000000000000000000000000000000000000000000000815260040180806020018281038252601d8152602001807f416464726573733a2063616c6c20746f206e6f6e2d636f6e747261637400000081525060200191505060405180910390fd5b6000808673ffffffffffffffffffffffffffffffffffffffff1685876040518082805190602001908083835b6020831061234d578051825260208201915060208101905060208303925061232a565b6001836020036101000a03801982511681845116808217855250505050505090500191505060006040518083038185875af1925050503d80600081146123af576040519150601f19603f3d011682016040523d82523d6000602084013e6123b4565b606091505b50915091506123c48282866123d0565b92505050949350505050565b606083156123e057829050612495565b6000835111156123f35782518084602001fd5b816040517f08c379a00000000000000000000000000000000000000000000000000000000081526004018080602001828103825283818151815260200191508051906020019080838360005b8381101561245a57808201518184015260208101905061243f565b50505050905090810190601f1680156124875780820380516001836020036101000a031916815260200191505b509250505060405180910390fd5b9392505050565b60006124af6124aa846129c6565b612995565b9050828152602081018484840111156124c757600080fd5b6124d2848285612abf565b509392505050565b6000813590506124e981612b14565b92915050565b6000813590506124fe81612b2b565b92915050565b60008135905061251381612b42565b92915050565b600082601f83011261252a57600080fd5b813561253a84826020860161249c565b91505092915050565b60008135905061255281612b59565b92915050565b60006020828403121561256a57600080fd5b6000612578848285016124da565b91505092915050565b6000806040838503121561259457600080fd5b60006125a2858286016124da565b92505060206125b3858286016124da565b9150509250929050565b6000806000606084860312156125d257600080fd5b60006125e0868287016124da565b93505060206125f1868287016124da565b925050604061260286828701612543565b9150509250925092565b6000806000806080858703121561262257600080fd5b6000612630878288016124da565b9450506020612641878288016124da565b935050604061265287828801612543565b925050606085013567ffffffffffffffff81111561266f57600080fd5b61267b87828801612519565b91505092959194509250565b6000806040838503121561269a57600080fd5b60006126a8858286016124da565b92505060206126b9858286016124ef565b9150509250929050565b600080604083850312156126d657600080fd5b60006126e4858286016124da565b92505060206126f585828601612543565b9150509250929050565b60006020828403121561271157600080fd5b600061271f84828501612504565b91505092915050565b60006020828403121561273a57600080fd5b600061274884828501612543565b91505092915050565b6000806040838503121561276457600080fd5b600061277285828601612543565b925050602061278385828601612543565b9150509250929050565b60006127998383612869565b60608301905092915050565b6127ae81612a4b565b82525050565b6127bd81612a4b565b82525050565b60006127ce82612a06565b6127d88185612a29565b93506127e3836129f6565b8060005b838110156128145781516127fb888261278d565b975061280683612a1c565b9250506001810190506127e7565b5085935050505092915050565b61282a81612a5d565b82525050565b600061283b82612a11565b6128458185612a3a565b9350612855818560208601612ace565b61285e81612b03565b840191505092915050565b60608201600082015161287f60008501826127a5565b50602082015161289260208501826128ab565b5060408201516128a560408501826128ab565b50505050565b6128b481612ab5565b82525050565b6128c381612ab5565b82525050565b60006020820190506128de60008301846127b4565b92915050565b60006060820190506128f960008301866127b4565b61290660208301856128ba565b61291360408301846128ba565b949350505050565b6000602082019050818103600083015261293581846127c3565b905092915050565b60006020820190506129526000830184612821565b92915050565b600060208201905081810360008301526129728184612830565b905092915050565b600060208201905061298f60008301846128ba565b92915050565b6000604051905081810181811067ffffffffffffffff821117156129bc576129bb612b01565b5b8060405250919050565b600067ffffffffffffffff8211156129e1576129e0612b01565b5b601f19601f8301169050602081019050919050565b6000819050602082019050919050565b600081519050919050565b600081519050919050565b6000602082019050919050565b600082825260208201905092915050565b600082825260208201905092915050565b6000612a5682612a95565b9050919050565b60008115159050919050565b60007fffffffff0000000000000000000000000000000000000000000000000000000082169050919050565b600073ffffffffffffffffffffffffffffffffffffffff82169050919050565b6000819050919050565b82818337600083830152505050565b60005b83811015612aec578082015181840152602081019050612ad1565b83811115612afb576000848401525b50505050565bfe5b6000601f19601f8301169050919050565b612b1d81612a4b565b8114612b2857600080fd5b50565b612b3481612a5d565b8114612b3f57600080fd5b50565b612b4b81612a69565b8114612b5657600080fd5b50565b612b6281612ab5565b8114612b6d57600080fd5b5056fe456e756d657261626c655365743a20696e646578206f7574206f6620626f756e64734552433732313a207472616e7366657220746f206e6f6e20455243373231526563656976657220696d706c656d656e7465724552433732313a207472616e7366657220746f20746865207a65726f2061646472657373416464726573733a20696e73756666696369656e742062616c616e636520666f722063616c6c4552433732313a206f70657261746f7220717565727920666f72206e6f6e6578697374656e7420746f6b656e4552433732313a20617070726f76652063616c6c6572206973206e6f74206f776e6572206e6f7220617070726f76656420666f7220616c6c4552433732313a2062616c616e636520717565727920666f7220746865207a65726f20616464726573734552433732313a206f776e657220717565727920666f72206e6f6e6578697374656e7420746f6b656e456e756d657261626c654d61703a20696e646578206f7574206f6620626f756e64734552433732313a20617070726f76656420717565727920666f72206e6f6e6578697374656e7420746f6b656e4552433732313a207472616e73666572206f6620746f6b656e2074686174206973206e6f74206f776e4552433732314d657461646174613a2055524920717565727920666f72206e6f6e6578697374656e7420746f6b656e4552433732313a20617070726f76616c20746f2063757272656e74206f776e65724552433732313a207472616e736665722063616c6c6572206973206e6f74206f776e6572206e6f7220617070726f766564a264697066735822122079f2442d0217091840477026e54419532019422d63281810a53cbbcb9ac8cda164736f6c63430007060033",
  "immutableReferences": {},
  "source": "// SPDX-License-Identifier: MIT\npragma solidity ^0.7.0;\npragma abicoder v2;\n\nimport \"@openzeppelin/contracts/token/ERC721/ERC721.sol\";\n\ncontract PlayerToken is ERC721 {\n    struct Player {\n        address owner;\n        uint256 id;\n        uint256 rank;\n    }\n\n    Player[] public players;\n    mapping(uint256 => bool) playerExists;\n\n    constructor() ERC721(\"PlayerToken\", \"PT\") {\n    }\n\n    function mint(uint256 _id, uint256 _rank) public {\n        require(!playerExists[_id]);\n        Player memory playerObject = Player({ owner: msg.sender, id: _id, rank: _rank });\n        players.push(playerObject);\n        _mint(msg.sender, players.length);\n        playerExists[_id] = true;\n    }\n\n    function getPlayers() public view returns (Player[] memory) {\n        return players;\n    }\n}",
  "sourcePath": "C:/Users/xstuk/Desktop/projects/fantasy-x/dapp/contracts/PlayerToken.sol",
  "compiler": {
    "name": "solc",
    "version": "0.7.6+commit.7338295f.Emscripten.clang"
  },
  "schemaVersion": "3.3.3",
  "updatedAt": "2021-02-06T19:56:05.560Z",
  "networkType": "ethereum",
  "devdoc": {
    "kind": "dev",
    "methods": {
      "approve(address,uint256)": {
        "details": "See {IERC721-approve}."
      },
      "balanceOf(address)": {
        "details": "See {IERC721-balanceOf}."
      },
      "baseURI()": {
        "details": "Returns the base URI set via {_setBaseURI}. This will be automatically added as a prefix in {tokenURI} to each token's URI, or to the token ID if no specific URI is set for that token ID."
      },
      "getApproved(uint256)": {
        "details": "See {IERC721-getApproved}."
      },
      "isApprovedForAll(address,address)": {
        "details": "See {IERC721-isApprovedForAll}."
      },
      "name()": {
        "details": "See {IERC721Metadata-name}."
      },
      "ownerOf(uint256)": {
        "details": "See {IERC721-ownerOf}."
      },
      "safeTransferFrom(address,address,uint256)": {
        "details": "See {IERC721-safeTransferFrom}."
      },
      "safeTransferFrom(address,address,uint256,bytes)": {
        "details": "See {IERC721-safeTransferFrom}."
      },
      "setApprovalForAll(address,bool)": {
        "details": "See {IERC721-setApprovalForAll}."
      },
      "supportsInterface(bytes4)": {
        "details": "See {IERC165-supportsInterface}. Time complexity O(1), guaranteed to always use less than 30 000 gas."
      },
      "symbol()": {
        "details": "See {IERC721Metadata-symbol}."
      },
      "tokenByIndex(uint256)": {
        "details": "See {IERC721Enumerable-tokenByIndex}."
      },
      "tokenOfOwnerByIndex(address,uint256)": {
        "details": "See {IERC721Enumerable-tokenOfOwnerByIndex}."
      },
      "tokenURI(uint256)": {
        "details": "See {IERC721Metadata-tokenURI}."
      },
      "totalSupply()": {
        "details": "See {IERC721Enumerable-totalSupply}."
      },
      "transferFrom(address,address,uint256)": {
        "details": "See {IERC721-transferFrom}."
      }
    },
    "version": 1
  },
  "userdoc": {
    "kind": "user",
    "methods": {},
    "version": 1
  }
}